:020000040800F2
:10000000D85200205D020008AF190008B31800089C
:10001000AD190008E303000889340008000000005F
:100020000000000000000000000000009D0100082A
:10003000FD03000800000000F9010008DD1B0008B6
:1000400077020008770200087702000877020008AC
:10005000770200087702000877020008770200089C
:10006000770200087702000877020008770200088C
:10007000770200087702000877020008770200087C
:10008000770200087702000877020008770200086C
:10009000770200087702000877020008770200085C
:1000A00077020008B11C00087702000877020008F8
:1000B000770200087702000877020008770200083C
:1000C000770200087702000877020008770200082C
:1000D000770200087702000877020008770200081C
:1000E000770200087702000877020008770200080C
:1000F00077020008770200087702000877020008FC
:1001000077020008770200087702000877020008EB
:1001100077020008770200087702000877020008DB
:1001200077020008770200087702000877020008CB
:1001300077020008770200087702000877020008BB
:10014000770200087702000877020008B519000856
:10015000770200087702000877020008770200089B
:10016000770200087702000877020008770200088B
:1001700077020008770200087702000800000000FC
:100180007702000877020008DFF80CD000F0ECF8E6
:1001900000480047C9340008D85200202C4B196889
:1001A0000868B0E8F04F80F30988BFF36F8F4FF015
:1001B000000080F3118870470000000008480068C4
:1001C000006880F308884FF0000080F3148862B65E
:1001D00061B6BFF34F8FBFF36F8F00DF00BF00BF6B
:1001E00008ED00E0DFF80C00016841F470010160E7
:1001F000704700BF88ED00E0EFF30980BFF36F8F19
:10020000134B1A681EF0100F08BF20ED108A20E96A
:10021000F04F106009B44FF0500080F31188BFF325
:100220004F8FBFF36F8F03F047FD4FF0000080F357
:10023000118809BC19680868B0E8F04F1EF0100F6B
:1002400008BFB0EC108A80F30988BFF36F8F704746
:10025000B4010020EFF30580704700000648804796
:1002600006480047FEE7FEE7FEE7FEE7FEE7FEE79B
:10027000FEE7FEE7FEE7FEE7A11C00088901000893
:100280002DE9F05F0546002092469B4688460646CB
:10029000814640241BE0284641464746224600F05E
:1002A00053F853465A46C01A914110D31146184686
:1002B000224600F03AF82D1A67EB01084F46224615
:1002C0000120002100F031F817EB00094E41201EFB
:1002D000A4F10104DFDC484631462A464346BDE826
:1002E000F09F40EA01039B0703D009E008C9121FF1
:1002F00008C0042AFAD203E011F8013B00F8013BE0
:10030000521EF9D27047D2B201E000F8012B491E0B
:10031000FBD270470022F6E710B513460A460446A2
:100320001946FFF7F0FF204610BD202A04DB203AD3
:1003300000FA02F1002070479140C2F1200320FA38
:1003400003F3194390407047202A04DB203A21FA36
:1003500002F00021704721FA02F3D040C2F12002DE
:100360009140084319467047064C074D06E0E06887
:1003700040F0010394E8070098471034AC42F6D3EC
:10038000FFF706FFF04000081041000870B58C1818
:1003900010F8015B15F0070301D110F8013B2A1199
:1003A00006D110F8012B03E010F8016B01F8016B86
:1003B0005B1EF9D12B0705D40023521E0DD401F882
:1003C000013BFAE710F8013BCB1A921C03E013F84B
:1003D000015B01F8015B521EF9D5A142D8D3002080
:1003E00070BDFEE7002070470020704710B502483E
:1003F00001F05DFD002010BDB8040020704772B60A
:10040000FEE7000070B5044600F00AF90546601CDE
:1004100002D004480078044400F002F9401BA042D6
:10042000FAD370BDCC0000202DE9F84FDFF8B8A159
:10043000002201250AF1040B03264FF00F090BF1EE
:10044000040E00BF0B6805FA02F42340A3426FD1EB
:100450000F7907F00307012F01D0022F16D187680B
:100460004FEA420806FA08FC27EA0C07D1F80CC04C
:100470000CFA08FC4CEA070CC0F808C04768A74310
:100480000C79C4F3001494403C4344600C79E44379
:10049000A4070AD0C4684FEA420C06FA0CF7BC4322
:1004A0008F6807FA0CF72743C7600C7904F0030440
:1004B000022C12D1D40800EB840CDCF82040570742
:1004C000FF0E09FA07F824EA0804D1F8108008FAA8
:1004D00007F848EA0408CCF8208004684FEA420C88
:1004E00006FA0CF7BC430F7907F0030707FA0CF77D
:1004F000274307604C68E40070D53C4C276847F4FC
:1005000080472760246822F0030704F480440094A5
:10051000374C07EB040CDCF8084897074FEA1778CC
:1005200009FA08F7BC43334FB84202D1002724E050
:1005300054E0314FB84201D101271EE02F4FB8429D
:1005400001D1022719E02E4FB84201D1032714E050
:100550002C4FB84201D104270FE02B4FB84201D1F4
:1005600005270AE0294FB84201D1062705E0284FA8
:10057000B84201D1072700E0082707FA08F7274308
:10058000CCF80878DAF800405746D1F804C09C430C
:100590005FEACC3C00D51C433C60DBF800405F4682
:1005A000D1F804C09C435FEA8C3C00D51C433C60FE
:1005B000DEF800407746D1F804C09C435FEACC2CBB
:1005C00000D51C433C60084F0C373C68D1F804C090
:1005D0009C435FEA8C2C00D51C433C60521C102AC3
:1005E000FFF430AFBDE8F88F003C014044380240D2
:1005F00000300140000002400004024000080240B8
:10060000000C02400010024000140240001802409A
:10061000001C02400AB1816170470904FBE7000039
:100620000148806870470000CC00002002488168C3
:100630000278114481607047CC0000200B4810B54F
:10064000016841F400710160016841F4806101605A
:10065000016841F480710160032000F08DF80020F2
:1006600000F006F800F03EF8002010BD003C02400B
:1006700010B5014688B00022192000F05DF819205D
:1006800000F04CF813480024016841F001010160BA
:10069000006805A900F001000690684600F0ACFD76
:1006A00000F0D0FD0C494000B0FBF1F10C480B4AC2
:1006B000491E026040F2E732C0E90324C0E9011498
:1006C00000F0C8FF10B1012008B010BD044800F0D0
:1006D000EFFFF9E74438024040420F0000000140BC
:1006E000700400200C4882B0016841F48041016030
:1006F000006800F4804000900748001F016841F046
:10070000805101600068002200F0805000900F21AD
:10071000901E02B000F010B844380240002809DBF7
:1007200000F01F02012191404009800000F1E0200B
:10073000C0F8001170470000F0B40E4B1B680C4667
:10074000C3F30223C3F10705042D00D90425191DA5
:10075000072901D2002300E0DB1E012606FA05F17D
:10076000491E214099409E40761E16403143F0BC00
:1007700002F08BBE0CED00E0064900F007020868AD
:100780004FF6FF03184040EA0220034A1043086076
:10079000704700000CED00E00000FA0570470068AB
:1007A000416200207047F0B50368586A39B19C6A0D
:1007B0004FF4827600EB144400204D1E0AE040EA1C
:1007C000024098620FE006EB8007DF59401C04EB03
:1007D0001744C0B2A842F6D344EA02404FF48072F4
:1007E00002EB810158500020F0BDD0F8040401F064
:1007F0002BBEC1EBC10200EB8202D0F80404926C64
:1008000001F098BDC1EBC10200EB8202D0F80404F4
:10081000D2F8082201F0E2BDD0F8040401F016BEBF
:1008200070B504460B0601F00F00C0EBC00104EBED
:1008300081014FF001024FF0000503D581F83D2002
:100840003C3103E081F8FD5101F5FE71087094F828
:10085000BC03012808D084F8BC23206802F0ACF95E
:1008600084F8BC53002070BD022070BD70B50446F2
:1008700001F00F006268904201D9012070BD0B06A3
:1008800001F00F01C1EBC10104EB81014FF0010246
:100890004FF0000503D581F83D203C3103E081F89D
:1008A000FD5101F5FE718D70087094F8BC030128AC
:1008B00008D084F8BC23206802F078FB84F8BC538D
:1008C000002070BD022070BD2DE9F04104460F06E6
:1008D00001F00F00C0EBC00104EB81014FF00106F5
:1008E0004FF0000503D581F83D603C3103E081F80D
:1008F000FD5101F5FE7108708A60CB704A7802B133
:10090000C880022B00D10D7194F8BC03012809D0D6
:1009100084F8BC63206802F0ABF8284684F8BC5326
:10092000BDE8F0810220FBE770B50C4601F00F0531
:10093000C5EBC50100EB8101C1F81032C1F80822F6
:100940000023C1F8143281F8FD3181F8FC510369AC
:1009500001F5FE71012B00D10A612207027C0068BB
:1009600003D002F07BFB002070BD02F067FAFAE7CB
:1009700070B504460D4601F00F006168884201D948
:10098000012070BD29064FF000064FF0010207D587
:10099000C0EBC00104EB810181F83D203C3107E050
:1009A000C5EBC50104EB810181F8FD6101F5FE7124
:1009B0008A70087094F8BC03012807D084F8BC231F
:1009C000206802F01FFB280702D007E0022070BD5C
:1009D000217C04F57172206802F0BCFA84F8BC63D3
:1009E000002070BD70B50C4601F00F05C5EBC501C8
:1009F00000EB81010B658A6400234B65012381F8BC
:100A00003D3001F83C5F0369012B00D10A612207E8
:100A1000027C006803D002F021FB002070BD02F0D0
:100A20000DFAFAE72DE9FC5F05680446284602F056
:100A30003EFC00287ED1206802F065FC002879D0B9
:100A4000206802F060FC800704D52168486900F046
:100A500002004861206802F056FCC10604F571707E
:100A6000009034D52068816921F0100181612F6ADE
:100A700007F00F00C0EBC00004EB8006C7F3434053
:100A800006F5FE76022802D0062811D01AE047F6B5
:100A9000F070074216D0C7F30A1217462846F168CD
:100AA00002F035FCF0683844F060B069384408E082
:100AB00008222846009902F02AFCB069C7F30A11FF
:100AC0000844B0612068816941F0100181612068AB
:100AD00002F019FC00034FF0010A4FF0080B5BD540
:100AE0000026206802F0EEFB0746DFF8689351E02D
:100AF000F8074DD0F1B2206802F0FDFB8046C00738
:100B000007D005EB4611C1F808AB3146204600F08E
:100B100057FF5FEA087022D505EB4611C1F808BB04
:100B20002068016C00EB46100191D0F8082B494574
:100B300007D900E08BE1110403D54FF40041C0F860
:100B4000081B204600F076FA0198484507D920692D
:100B5000012804D120680121009A02F0FBF95FEA24
:100B6000C86004D505EB46111020C1F8080B5FEAF8
:100B7000886004D505EB46112020C1F8080B5FEA18
:100B8000884005D505EB46104FF40051C0F8081B0E
:100B90007F08761C002FABD1206802F0B4FB400325
:100BA0004FF000095CD5206802F085FB074600265F
:100BB00054E0F80750D0F1B2206802F08AFB80467A
:100BC000C00723D006F00F020AFA02F0D5F8342845
:100BD0008243C5F8342805EB4610C0F808A92069FF
:100BE00001280FD1C6EBC60004EB8000D0E911212B
:100BF0001144816436B9206D20B920680121009A22
:100C000002F0A8F9F1B22046FFF7F3FD5FEA0870A1
:100C100003D505EB4611C1F808B95FEAC86004D5F1
:100C200005EB46111020C1F808095FEA486004D5B9
:100C300005EB46114020C1F808095FEA887004D529
:100C400005EB46110220C1F808095FEA086003D5E8
:100C50003146204600F01AFF7F08761C002FA8D1ED
:100C6000206802F050FB002811DAD5F8040820F0C3
:100C70000100C5F8040894F8F403012829D020469F
:100C800000F0BCF92068416901F000414161206831
:100C900002F039FB00050BD5D5F80808C00702D0D3
:100CA000204600F0EFF92068416901F400614161DC
:100CB000206802F028FBC00468D5D5F8040820F0AD
:100CC0000100C5F804081021206802F0D1FA0021C3
:100CD00027E084F8F49300212046FFF75FFDD1E779
:100CE00005EB41104FF67F32C0F80829D0F80039E3
:100CF00023F40013C0F80039D0F8003943F0006342
:100D0000C0F80039C0F8082BD0F8002B22F40012EC
:100D1000C0F8002BD0F8002B42F00062C0F8002B86
:100D2000491C60688842DBD8D5F81C0840F00110E7
:100D3000C5F81C08206B60B1D5F8840840F00B00A2
:100D4000C5F88408D5F8440840F00B00C5F84408FD
:100D50000CE0D5F8141842F22B000143C5F8141822
:100D6000D5F8100840F00B00C5F81008D5F80008B9
:100D700020F4FE60C5F80008217C2068009A02F08B
:100D8000E9F82068416901F480514161206802F06E
:100D9000BAFA800415D5206801F0AAFE206802F096
:100DA00079FAE06000F048FA0146227B206802F000
:100DB000E5FA204600F00CF92068416901F4005181
:100DC0004161206802F09FFA000707D5204600F035
:100DD00019F92068416901F008014161206802F0B9
:100DE00092FAC00208D50021204600F035F82068AC
:100DF000416901F480114161206802F084FA8002A7
:100E000008D50021204600F02BF82068416901F444
:100E100000114161206802F076FA400007D52046B3
:100E2000FFF7E3FC2068416901F0804141612068DF
:100E300002F069FA40070AD520684568680702D5BC
:100E40002046FFF7E9FC2068416829434160BDE87E
:100E5000FC9F00000A30544FD0F8040401F042BB5C
:100E6000D0F8040401F04EBB2DE9F0418AB0040033
:100E700005D094F8BD032668002520B108E00120C4
:100E80000AB0BDE8F08184F8BC53204600F05EF85B
:100E9000032084F8BD03F06BC00500D425612068F1
:100EA00001F0C6FF04F11001282288466846FFF7CA
:100EB00018FA94E80F0001F029FE0226C8BB0021B1
:100EC000206802F032FA002001270EE0C0EBC001DA
:100ED00004EB810181F83D7001F83C0FC880CD70B2
:100EE0008D60CD60401CC0B24D6161688142EDD81B
:100EF000002011E0C0EBC00104EB810181F8FD513D
:100F000081F8FC0181F8FF51C1F80452C1F8085280
:100F1000401CC0B2C1F8105261688142EAD8282250
:100F200041466846FFF7DDF994E80F0001F0C6FE80
:100F300010B184F8BD63A2E784F8385084F8BD731B
:100F4000206801F0ADFE00209AE7000010B586B0E1
:100F5000044614216846FFF7DDF92068B0F1A04F80
:100F60002FD119480021026842F001020260006896
:100F700000F0010005904FF4C05000900220CDE930
:100F80000101032003900A20049069460F48FFF7EF
:100F90004BFA0D48001D016841F0800101600A48CC
:100FA0001430016841F4804101600068002200F4BF
:100FB0008040059005214320FFF7BEFB4320FFF74B
:100FC000ADFB06B010BD000030380240000002400A
:100FD00070B50446C068012570B1022801D0FFF742
:100FE0000EFA2946D4F8040401F0F8FAD4F80404FF
:100FF000BDE8704001F0ABBA0025F2E7D0F8040478
:1010000001F0D2BAD0F8040401F0D8BA10B5044601
:1010100090F8BC0301280BD0012084F8BC0384F8AD
:101020003810206802F098F9002084F8BC0310BD45
:10103000022010BDD0F8042400F57171104601F0B3
:10104000D9BA10B50446006894F8BC13012906D03B
:10105000012184F8BC13A16A012902D008E0022012
:1010600010BDA169012903D0816B41F480318163F6
:10107000206802F0E7F8206801F004FE002084F800
:10108000BC0310BD10B50446D0F8040401F0F4FA16
:101090002068D0F8001E41F00101C0F8001E206A4F
:1010A000002804D00248016841F00601016010BD2B
:1010B00010ED00E0704700002DE9F0470E460500F6
:1010C00065D0DFF81481D8F80000F7B200F007000F
:1010D000B04207D288F80070D8F8000000F007008E
:1010E000B04254D128683D4C810712D5400703D542
:1010F000206840F4E05020602878000703D520687D
:1011000040F4604020602068A96820F0F0000843A7
:1011100020602878C0072DD0304968680839012838
:1011200012D0022813D0032811D00968890700299A
:101130002DDA216821F0030101432160FFF770FAE5
:10114000814641F2883A0EE009688903EFE70968B1
:101150008901ECE7FFF764FAA0EB0901514502D9D8
:101160000320BDE8F0872068696800F00C00B0EB50
:10117000810FEFD1D8F80010404601F00701B142CD
:1011800007D90770006800F00700B04201D00120C5
:10119000E7E72878400705D52068E96820F4E050A3
:1011A000084320602878000706D52068296920F4C4
:1011B000604040EAC100206000F054F82168084A0D
:1011C000C1F30311515CC840064908600648006835
:1011D000FFF74EFA0020C4E7003C02400838024006
:1011E000C0400008D8000020D000002001490120A4
:1011F000C8647047000047420F2202600C4A13681F
:1012000003F003034360136803F0F0038360136883
:1012100003F4E053C36012684FF4E05303EAD202D0
:1012200002610448006800F0070008607047000091
:1012300008380240003C0240014800687047000046
:10124000D80000200448054900680968044AC1F331
:101250004231515CC8407047D80000200838024035
:10126000D0400008154810B5006810F00C02144872
:1012700013D01449042A0FD0082A0ED10F4C241F72
:101280002268236802F03F025B0207D52068C0F3A2
:101290008810A0FB010106E0084610BD2168C1F3DB
:1012A0008811A1FB00010023FEF7EAFF2168C1F3CA
:1012B0000141491C4900B0FBF1F010BD0838024063
:1012C0000024F40040787D01054810B50068000650
:1012D00005D5FFF7EFFE02498020891C087010BD7C
:1012E0000C3802402DE9F84F04006ED02078DFF86A
:1012F0004C93C007A9F104054AD009F10400016824
:10130000C1F38101012908D00068C0F381000228DF
:101310000AD1D9F80000400206D52868800337D5E5
:1013200060680028E1D033E06068B0F5803F10D0FD
:10133000B0F5A02F286810D020F4803028602868ED
:1013400020F4802028606068A8B1FFF769F906469C
:101350000DE0286840F48030F4E740F480202860F5
:10136000F7E700BFFFF75CF9801B642873D8286893
:101370008003F7D50CE0FFF753F9064605E000BF00
:10138000FFF74EF9801B6428F0D828688003F7D453
:101390002078DFF8AC8280074FF0000A3ED5A748DE
:1013A000001D016811F00C0F08D00068C0F3810027
:1013B00002280BD1D9F80000400207D42868800722
:1013C00016D5E068012800D112E033E1E068B8B139
:1013D0000120C8F80000FFF723F9064605E000BF2A
:1013E000FFF71EF9801B0228C0D828688007F7D5B0
:1013F0002868216920F0F80040EAC10028600DE06B
:10140000C8F800A0FFF70CF9064604E0FFF708F95A
:10141000801B02281FD828688007F7D4207800078F
:1014200022D5864F87486169703771B1012101600B
:10143000FFF7F6F8064604E0FFF7F2F8801B0228F3
:1014400009D838688007F7D50EE0C0F800A0FFF78C
:10145000E7F8064605E082E0FFF7E2F8801B022885
:101460007DD838688007F7D42078400768D5DFF842
:10147000CCB100270BF13C0BDBF80000C0000BD413
:10148000DBF8001041F08051CBF80010DBF80000D1
:10149000012700F0805000906B4E3068C00510D4DA
:1014A000306840F480703060FFF7BAF8009005E0D3
:1014B000FFF7B6F80099401A022850D83068C005E6
:1014C000F6D55E4EA0686C3601280FD0052830682E
:1014D00010D020F001003060306820F0040030604F
:1014E000A068B8B1FFF79CF800900FE0306840F0BA
:1014F0000100F4E740F004003060F7E7FFF790F8F0
:101500000099411A41F28830814266D830688007DC
:10151000F4D50EE0FFF784F8009007E0FFF780F8BD
:101520000099411A41F28830814256D830688007CC
:10153000F4D42FB1DBF8001021F08051CBF800106B
:10154000A069C8B33D49091D0968C1F38101022999
:101550004AD00228504607D0C8F8600000E03CE0BE
:10156000FFF75EF804463BE04746C8F86000FFF727
:1015700057F8064605E000BFFFF752F8801B022827
:101580002BD828688001F7D4D4E907010843A16A61
:101590002E4A490802EB0141626A41EA821108437E
:1015A00094F82C1040EA0161C9F800100120386657
:1015B000FFF736F8044606E03EE000BFFFF730F8DC
:1015C000001B022809D828688001F7D534E000BF45
:1015D000FFF726F8001B022802D90320BDE8F88F88
:1015E00028688001F4D427E00128F7D0D9F800005A
:1015F000E26900F4800191421CD1226A00F03F01AF
:10160000914217D147F6C071626A0140B1EB821F67
:1016100010D1A26A4FF0FF3300F4403103EB5202C5
:10162000B1EB024F06D194F82C1000F07060B0EBD3
:10163000016F01D00120D1E70020CFE7043802403C
:1016400000004742800E4742007000400000FFFF4C
:101650007047704710B5040003D094F83D0010B1F6
:1016600007E0012010BD002084F83C00204600F077
:101670001EF8022084F83D00211D206800F01EFBAA
:10168000012084F8460084F83E0084F83F0084F886
:10169000400084F8410084F8420084F8430084F854
:1016A000440084F8450084F83D00002010BD7047D8
:1016B00090F83D10012901D001207047022180F8E7
:1016C0003D100168CA6842F00102CA600068114911
:1016D000884214D0B0F1804F11D00F4988420ED00B
:1016E0000E4988420BD00E49884208D00D498842E5
:1016F00005D00D49884202D00C49884204D1816846
:1017000001F00701062903D0016841F001010160E1
:101710000020704700000140000400400008004025
:10172000000C00400004014000400140001800404F
:10173000704770B50446006801694FF00005C94361
:10174000890715D4C168C943890711D4E91E01610D
:1017500001202077206880698007204602D0FFF7AB
:10176000E7FF04E000F098F8204600F096F82577AF
:1017700020680169C943490717D4C168C9434907AB
:1017800013D46FF004010161022020772068806982
:1017900010F4407F204602D0FFF7CAFF04E000F0BB
:1017A0007BF8204600F079F8257720680169C94365
:1017B000090716D4C168C943090712D46FF008019C
:1017C0000161042020772068C0698007204602D08C
:1017D000FFF7AEFF04E000F05FF8204600F05DF890
:1017E000257720680169C943C90617D4C168C94370
:1017F000C90613D46FF0100101610820207720681A
:10180000C06910F4407F204602D0FFF791FF04E04A
:1018100000F042F8204600F040F825772068016982
:10182000C943C90708D1C168C943C90704D1891E82
:101830000161204600F032F820680169C9430906B9
:1018400009D4C168C943090605D46FF0800101615C
:101850002046FFF7FDFE20680169C943490609D407
:10186000C168C943490605D46FF0400101612046B3
:1018700000F01EF820680169C94389060BD4C168CD
:10188000C943890607D46FF0200101612046BDE8F5
:101890007040FFF7DEBE70BD7047704700680349B7
:1018A000884201D1FEF7C2BE70470000000001402F
:1018B0007047FEE7F0B500230A24302537261F467F
:1018C00011E000BFB4EB107F02D905EB107C01E002
:1018D00006EB107C01F813C001EB430C00015B1C0C
:1018E0008CF80170DBB29342ECD3F0BD30B587B019
:1018F00014216846FEF70EFD15480024016841F0EA
:1019000080010160016801F080010591016841F0EA
:1019100001010160016801F001010591016841F0D8
:101920000801016000680B4D00F0080005900022DE
:1019300003212846FEF76EFE032000900120CDE92A
:101940000104694628460394FEF76EFD07B030BDDA
:1019500030380240000C024010B500220F491048F8
:1019600000F0C3FC08B1FEF74AFD0E490C4800F038
:10197000ABFE08B1FEF743FD0B49094800F0A3FA9E
:1019800008B1FEF73CFD064800F018FF002803D020
:10199000BDE81040FEF733BD10BD00004800002038
:1019A000B8040020E0000020BC000020FEE7FFF7A4
:1019B0008BFCFEE70148FFF735B80000E009002086
:1019C0002DE9F04103680D4604461E6C03EB4511FA
:1019D000D1F8080BD4F810E04FF400474FF0200C7A
:1019E00004F57172BEF1010F09D0DFF898E0764579
:1019F00039D1020432D500BFC1F8087B3FE0224B49
:101A00005FEA007E04D59E4239D90004F4D436E062
:101A10005FEA806E02D5C1F808CB30E010F0280FE5
:101A20002DD19E4201D90004E6D4C5EBC50004EBDC
:101A30008000D1F8101BD0F80432C1F31201591AFA
:101A4000C0F81412D0F808121944C0F8081295B959
:101A5000D4F8100278B9012120680AE080060AD57E
:101A6000C1F808CB07E035B9D4F8100218B9002145
:101A7000184601F06FFAE9B22046FEF7C3FE0020D7
:101A8000BDE8F0810A31544F0A30544F2DE9F84F28
:101A90000E46C1EBC60100EB810481460568D4E91E
:101AA00014103C34884202D90120BDE8F88F081A8E
:101AB000A168814200D20846C01C870805EB461881
:101AC0001BE000BFA0EB010AA068504500D282468F
:101AD0000AF10300870899F8100000901FFA8AF3B2
:101AE000F2B22846E16801F0BDFCE16801EB0A00B2
:101AF000E060A16901EB0A00A061D8F8180980B282
:101B0000B84205D3D4E90501814201D20028D9D1D8
:101B1000D4E90501884208D806F00F010120884069
:101B2000D5F834188143C5F834180020BDE7017892
:101B3000407841EA00207047084C012211462046B7
:101B4000FEF768FD642001F0EBFC00220121204635
:101B5000FEF760FD642001F0E3FCEEE7000C0240BC
:101B6000154E164C4FF47A75012202213046FEF7CD
:101B700051FD13A04022D0E90010C4E902100F4922
:101B80001248083100F0A6F9284601F0C9FC10A05F
:101B90000022D0E90010C4E9021002213046FEF70D
:101BA00039FD064940220831084800F093F92846DB
:101BB00001F0B6FCD8E70000000C02400000002055
:101BC0004C454431204F4E2000000000B804002056
:101BD0004C454431204F46460000000010B55020CF
:101BE00080F31188BFF34F8FBFF36F8F02F07CF942
:101BF00018B104494FF080500860002080F311882C
:101C000010BD000004ED00E030B593B0302168460F
:101C1000FEF780FB14210CA8FEF77CFB1E48002574
:101C2000016841F080510160006800F0805011901F
:101C30001A48016841F4804101600068022400F400
:101C40008040119001200090000401908001CDE9B6
:101C50000640192008904FF4A870CDE90904072028
:101C60000B906846FFF73EFB08B172B6FEE70CA981
:101C70000F2081E831004FF4A0500F904FF48050B6
:101C8000109005210CA8FFF717FA08B172B6FEE70D
:101C9000FFF7ACFA13B030BD40380240007000408E
:101CA0000248016841F470010160704788ED00E06E
:101CB0000148FFF73EBD000070040020F0B5026847
:101CC000254C264D264E274F274B4FF0804CA042E7
:101CD00009D0604507D0A84205D0B04203D0B84231
:101CE00001D0984204D122F0700E4A6842EA0E02F6
:101CF000A0421BD0604519D0A84217D0B04215D0E1
:101D0000B84213D0984211D0184DA8420ED0184DA9
:101D1000A8420BD0174DA84208D0174DA84205D0B5
:101D2000164DA84202D0164DA84203D122F44075A8
:101D3000CA682A434D6922F080022A4302608A68F9
:101D4000C2620A688262A04201D0984201D1096948
:101D5000016301214161F0BD000001400004004029
:101D600000080040000C0040000401400040014019
:101D7000004401400048014000180040001C0040A1
:101D800000200040D0F8BC02002180F85010084626
:101D9000704710B5D0F8BC2242B1D0F8C0025178DB
:101DA0001278C36810469847002010BD032010BD6C
:101DB00070B50446812100F0B4FA002525876587B7
:101DC0000121204600F0ADFAA4F87851A4F87A5128
:101DD000D4F8BC0248B1D4F8C00204F52F7480686E
:101DE0008047206800F03FFE2560002070BD10B5E0
:101DF000D0F8BC421CB1E16C012902D00AE00320FA
:101E000010BDD0F8C00223786178C26818469047A8
:101E10000020E064002010BD0A21018000487047C6
:101E2000A8010020292101800048704718010020E6
:101E300029210180004870474401002029210180A8
:101E400000487047700100202DE9F04104465420FD
:101E500000F00AFE05004FF0000624D00520C4F86B
:101E6000BC526087A4F87A014023032281212046D6
:101E700000F058FB012727874023032239462046DC
:101E800000F050FBA4F8787185F85060D4F8C002D7
:101E90004068804740232A460121204600F04EFB3F
:101EA0000020BDE8F0810220C4F8BC62F9E710B55B
:101EB000D0F8BC222AB14023012100F03FFB0020D2
:101EC00010BD032010BD19B1C0F8C012002070472A
:101ED0000320704710B51346D0F8BC2222B190F809
:101EE0009C42032C02D00DE0032010BD92F850401C
:101EF0000CB1012010BD012482F850400A46812116
:101F000000F0C3FB002010BDF8B50022D0F8BC32B1
:101F10001546ADF80020144633B10E7816F0600671
:101F200025D0202E5DD101E00320F8BD4A78921E15
:101F30000A2A56D2DFE802F01008555555555514B7
:101F40000C05887818644FE0012203F1400139E064
:101F50004888000A586447E0012203F1440131E057
:101F60000122DA64CA88194600F069F83CE04E782C
:101F7000062E10D003DC3EB1012E32D134E00A2E01
:101F800023D00B2E2DD128E090F89C22032A28D1B3
:101F90000222694616E04B882226B6EB132F07D1A2
:101FA000CA88222A00D92222D0F8C0120D6808E07F
:101FB0002126B6EB132F04D1CA880E4D092A00D969
:101FC0000922294600F055F80EE090F89C22032AD9
:101FD00007D1012203F14801F4E790F89C22032A7B
:101FE00004D000F021F803242046F8BD88789864D6
:101FF000FAE700009C01002010B5D0F8B8220AB121
:1020000052689047002010BD134610B50A460021C3
:1020100000F094FA002010BD134610B50A460021C6
:1020200000F033FB002010BD10B50446802100F005
:1020300011FB2046BDE81040002100F00BBB10B59D
:102040000323C0F89432C0F858211346C0F85C212D
:102050000A46002100F072FA002010BD10B50521DB
:10206000C0F8941200231A46194600F067FA0020BF
:1020700010BD10B50223C0F8943282611346C261CC
:102080000A46002100F001FB002010BD10B504211C
:10209000C0F8941200231A46194600F0F6FA002000
:1020A00010BD000010B50A46024903A000F0EDF88B
:1020B000004810BD88070020437573746F6D204879
:1020C000494420436F6E6669670000001220088053
:1020D000004870476800002010B50A46024903A076
:1020E00000F0D3F8004810BD8807002043757374D2
:1020F0006F6D2048494420496E746572666163655E
:1021000000000000042008800048704764000020A0
:1021100010B50A46024903A000F0B7F8004810BD08
:102120008807002053544D6963726F656C65637452
:10213000726F6E696373000010B50A46024903A00E
:1021400000F0A3F8004810BD8807002053544D3319
:102150003220437573746F6D2048756D616E206910
:102160006E746572666163650000000010B51A2028
:1021700008800A480168001D0468001D00680818EE
:1021800009D008220649FFF795FB054904221031C2
:102190002046FFF78FFB0248801E10BD107AFF1FFC
:1021A0007E000020F8B504460020ADF80000488805
:1021B0000D46010A08295FD2DFE801F05E04091725
:1021C0005E5E3C45D4F8B412207C0A6819E0207C9D
:1021D00002260028D4F8B80205D0C16A68468847AC
:1021E0000146467039E0816AF8E7C0B2062843D25A
:1021F000DFE800F0030A1014181CD4F8B402426897
:1022000005E0694690471CE0D4F8B402826892B3B6
:10221000207CF6E7D4F8B402C268F8E7D4F8B40238
:102220000269F4E7D4F8B4024269F0E7D4F8B402E2
:102230008269ECE7207CF0B9D4F8B802416B6846BB
:102240008847014609E0207CA8B9D4F8B802016BA0
:1022500068468847014607204870EA888AB1BDF879
:10226000000040B1824200D90246ADF8002020466D
:10227000FFF7FFFEF8BDFFE729462046FFF7D4FE33
:10228000F8E72046FFF702FFF4E770B500230028C7
:102290001ED00025044602E06D1CEDB2641C2678B9
:1022A000002EF9D1022404EB450414801278CA549C
:1022B0005B1C0322CA5400245B1C06E0CA545B1C4E
:1022C000DAB28C54521CD3B2401C0278002AF5D1E9
:1022D00070BD01004FF0000004D0012901D0022997
:1022E00001D0032070470120704778B10023C0F867
:1022F000B832C0F8C032C0F8CC3209B1C0F8B4125C
:10230000012180F89C12027000F0ACB803207047E5
:1023100010B5D0F8C402FEF7A9FABDE81040FFF7E7
:10232000D8BF10B5D0F8C402FEF77AFABDE8104065
:10233000FFF7CFBF70B51646044621B194F89C0252
:10234000032841D048E0D4F8941204F11400002589
:10235000022932D1D0E902318B4206D95A1A826061
:1023600031462046FFF758FE0FE0994214D14068ED
:10237000884211D3D4F8981288420DD20022114617
:102380002046FFF749FEC4F8985200231A46194622
:10239000204600F0D3F810E094F89C02032805D101
:1023A000D4F8B802C16809B1204688478021204688
:1023B00000F050F92046FFF751FE94F8A0020128E2
:1023C0000AD184F8A05207E0D4F8B80242691AB1E1
:1023D00020469047002800D1002070BD10B513465C
:1023E000044621B194F89C02032823D02AE0D4F8B3
:1023F000941204F5AA70032924D1D0E90212914263
:102400000AD98A1A8260C068824200D302461946FD
:102410002046FFF7F9FD15E094F89C02032805D14A
:10242000D4F8B802016909B1204688472046FFF771
:102430002DFE07E0D4F8B80282691AB12046904711
:10244000002800D1002010BD0020704710B50121E8
:1024500080F89C12D0F8B82212B1526801799047E6
:10246000002010BD10B5017839BB15490222C1F812
:102470000404C0F8C4124FF0A04008600420486073
:102480000020C1E90320C1E9062008624862C86251
:1024900008630846FEF7E8FC08B1FDF7B0FF8021AD
:1024A0000748FEF77CF9402200210548FEF77BF93A
:1024B000802201210248FEF776F9002010BD0000BD
:1024C000E00900200A0601F07F01D0F8C402C1EB48
:1024D000C10100EB810002D590F83E00704790F8F2
:1024E000FE01704710B5D0F8B82222B190F89C32A6
:1024F000032B02D004E0032010BD126A02B1904702
:10250000002010BD10B5D0F8B82222B190F89C324E
:10251000032B02D004E0032010BD526A02B19047A1
:10252000002010BD10B51C461346D0F8C402224648
:10253000FEF7CAF9BDE81040FFF7CBBE10B5D0F8E2
:10254000C402FEF7F1F9BDE81040FFF7C2BE70B556
:102550000125044680F89C520020C4F89402606073
:10256000C4F8A402D4F8B802E0B1D4F8BC1221B186
:10257000426812B1002120469047002240231146B4
:102580002046FFF7CFFF4026A4F8645133460022CF
:1025900080212046C4F86061FFF7C4FFA5840020B5
:1025A000266270BD032070BD90F89C12042903D1EF
:1025B00090F89D1280F89C120020704710B5D0F85A
:1025C000B81221B190F89C22032A02D004E0032023
:1025D00010BDC96901B18847002010BD01740020F9
:1025E000704710B5D0F8C402FEF710FDBDE81040EA
:1025F000FFF76FBE70B5044600F2AA20054600F052
:102600004DF80120C4F89402B4F8B002C4F898025E
:1026100094F8AA0210F01F010AD001290ED0022955
:1026200012D000F080012046BDE8704000F012B8E2
:1026300029462046BDE8704000F0C2B82946204631
:10264000BDE8704000F0E6B929462046BDE870407C
:1026500000F040B910B5D0F8C402FEF789F9BDE822
:102660001040FFF736BE10B5D0F8C402FEF7E9FC03
:10267000BDE81040FFF72DBE90F89C1280F89D1227
:10268000042180F89C120020704710B5D0F8C402D5
:10269000FEF7A8F9BDE81040FFF71BBE70B5054670
:1026A00011F8010B2870087868704C1C2046FFF761
:1026B0003EFA6880A41C2046FFF739FAA880A01CC7
:1026C000FFF735FAE88070BD38B504460020ADF854
:1026D000000049B1C4F8B812C96A19B16846884700
:1026E000C4F8CC02002038BD032038BD02460320C8
:1026F000D2F8B832002B02D01B681046184770473A
:102700002DE9F0410F462C4E8978002504463170A2
:10271000012906D939462046FFF786FC0320BDE88B
:10272000F08194F89C0202280CD003281DD0394671
:102730002046FFF779FC31782046FFF75DFC032542
:102740002846ECE799B320466160FFF7CFFF05000C
:1027500004D039462046FFF767FCF1E72046FFF733
:1027600095FC032084F89C02EAE74FF00208C1B10F
:10277000606888421BD0C1B22046FFF73DFC31782B
:1027800020466160FFF7B2FF050010D039462046B1
:10279000FFF74AFC21792046FFF72EFC84F89C8243
:1027A000CEE784F89C8220466160FFF725FC204636
:1027B000FFF76CFCC4E70000DC000020FFF753BF0C
:1027C0002DE9F0410A78002512F0600208D0202A95
:1027D00001D0402A71D1D0F8B8229268904731E0F8
:1027E0004B78002201260A2B67D2DFE803F0415E16
:1027F0006658660805662D29FFF7D4FC5FE004469D
:102800008888D8B9C888C8B94888802816D200F006
:102810007F0794F89C02032810D084F89E723946F2
:102820002046FFF7DEFE2046FFF730FC1FB10220F6
:1028300084F89C0243E084F89C6240E020463CE03F
:10284000FFF75EFF05463AE0CB88012B35D190F8C3
:102850009C32012B04D0022B02D0032B2DD104E09B
:102860008260012200F1080116E00122011D13E03F
:1028700090F89C22012A03D0022A01D0032A1CD1FD
:10288000CA88022A19D1C660D0F8A41209B103215E
:10289000C160022200F10C01FFF7EBFB0FE0498859
:1028A00001290CD1C0F8A46211E090F89C32012BF0
:1028B00008D0022B06D0032B04D0FFF7B5FB284627
:1028C000BDE8F08149880129F9D1C0F8A422FFF7B9
:1028D000DDFBF4E72DE9F0410D460446287800269B
:1028E000097910F060000BD0202801D040286DD16C
:1028F000D4F8B8022946826820469047064686E00A
:102900006878A8B3012822D003287CD194F89C02CF
:10291000022802D0032876D10BE0002973D0802949
:1029200071D02046FFF796FE80212046FFF792FEE9
:102930006DE0688838B931B1802904D0E88810B9D1
:102940002046FFF787FE2046FFF7A0FB5FE094F8E4
:102950009C020228E1D0032855D16888A8BB48060C
:1029600002D02046FFF7D4FC2046FFF78FFBBFE7DD
:10297000FFE794F89C020027022802D0032842D1E6
:1029800011E009B180293ED1080601F07F0000EB7B
:10299000800004EB800101D5143101E001F5AA713A
:1029A00002220F602BE0080601F00F0000EB800010
:1029B00004EB80000BD5808C40B101F07F0000EB70
:1029C000800004EB800514350CE020E01BE0B0F83B
:1029D0006401C0B101F07F0000EB800004EB8005D2
:1029E00005F5AA7541B1802906D02046FFF76AFD9A
:1029F00010B10120286000E02F6002222946204605
:102A0000FFF737FB03E029462046FFF70DFB304672
:102A1000BDE8F08170B50646087800240D4610F038
:102A2000600003D0202801D0402817D196F89C02DE
:102A3000012803D0022801D003280FD128790128CA
:102A40000CD8D6F8B8028268304690470446E88829
:102A5000204306D13046FFF719FB02E03046FFF76E
:102A6000E3FA204670BD704700487047880900208F
:102A700070B50A78012302F00F054E78AB401B4C6D
:102A8000D0F81C58012E17D045EA0343C0F81C3873
:102A900000EB4210D0F8002B12040BD4D0F8002B1E
:102AA0000B89C978C3F30A031A4344EA81410A43F4
:102AB000C0F8002B002070BD9BB21D43C0F81C580D
:102AC00000EB4210D0F800391B04F3D4D0F80039E1
:102AD0000D89C978C5F30A0589042B4341EA82515F
:102AE0000B432343C0F80039E4E7000000800010E6
:102AF000D0F800196FF30A01C0F80019D0F80418D3
:102B000041F48071C0F804180020704770B5044685
:102B100006990A9E049D0D98012916D0E06840F0A0
:102B20004000E060204600F02BF8A16B1EB321F4BA
:102B30008031A163012D07D1A16841F00601A16098
:102B4000A16841F02001A16070BDA16B21F480312A
:102B5000A163E168094A1140E160E16821F4401194
:102B6000E160012803D1E06840F48010E060204675
:102B700000F006F8DEE741F48031DAE7BFFFBDFF81
:102B800001220C4902E0521C8A420BD80369002B37
:102B9000F9DA026942F001020261012204E0521CEA
:102BA0008A4201D9032070470369DB07F7D100206F
:102BB00070470000400D030030B54C780A780123BF
:102BC00000EB4212012C2CD0D2F8004B002C0BDA77
:102BD000D2F8004B44F00064C2F8004BD2F8004B2E
:102BE00044F08044C2F8004BD0F83C580C7804F014
:102BF0000F0403FA04F425EA0444C0F83C48D0F872
:102C00001C48097801F00F018B4024EA0341C0F809
:102C10001C18D2F8000B19490840C2F8000B00201C
:102C200030BDD2F80049002C0BDAD2F8004944F04C
:102C30000064C2F80049D2F8004944F08044C2F868
:102C40000049D0F83C480D7805F00F0503FA05F56A
:102C5000ADB2AC43C0F83C48D0F81C48097801F04C
:102C60000F018B4099B28C43C0F81C48D2F8000980
:102C700003490840C2F80009D1E700000078F3EFEB
:102C8000007833ECD0F8001E21F00301C0F8001EDC
:102C9000D0F8041821F00201C0F804180020704791
:102CA000D0F8001E21F00301C0F8001ED0F804186F
:102CB00041F00201C0F80418002070472DE9F04FE0
:102CC00000250E460446DDF82CC0DDF824B0109F28
:102CD0002846294604EB8002C2F80411401C0F2844
:102CE000F8D32046C7B1806B20F40012A263A06B1A
:102CF00040F40022A26308468846C4F8000ED4F8C7
:102D000000182046C4F80018BCF1010F16D0D0F806
:102D1000001841F0030116E0D0F8040840F0020268
:102D2000C4F80428A06B40F40012A263A06B20F446
:102D30000022A263A06B20F48022DBE7D0F8001809
:102D40000BB141F00101C0F80018102100F090FA19
:102D500000B10125204600F07BFA00B10125404674
:102D6000C4F81088C4F81488C4F81C8800214FF0F7
:102D700000694FF0904A4FF67F3314E004EB4112A4
:102D8000D2F800C9BCF1000F06DA11B1C2F800A9EF
:102D900004E0C4F8009901E0C2F80009C2F8100983
:102DA000C2F80839491C8E42E8D8002115E000BF5E
:102DB00004EB4112D2F800CBBCF1000F06DA11B1DE
:102DC000C2F800AB04E0C4F8009B01E0C2F8000BBD
:102DD000C2F8100BC2F8083B491C8E42E8D8D4F860
:102DE000101821F48072C4F81028A0616FF08040A0
:102DF0006061BBF1000F03D1A06940F01000A06139
:102E0000A06909490843A0610C9818B1A06940F075
:102E10000800A061012F03D1A06904490843A06103
:102E20002846BDE8F08F000000383C8004000040D8
:102E3000816821F0010181600020704770B50D7834
:102E40004E78434CEBB200EB4313012E1FD0D3F866
:102E5000100B6FF31200C3F8100BD3F8100B2040C7
:102E6000C3F8100B486908B188684861D3F8100BA3
:102E700040F40020C3F8100BD3F8100B8C68C4F397
:102E800012042043C3F8100B012A55D058E04E69B4
:102E9000002ED3F8106932D06FF31206C3F8106910
:102EA000D3F810692640C3F810694E698C68A642B1
:102EB00000D94C61D3F8104944F40024C3F81049F8
:102EC000D3F810494E69C6F312063443C3F81049CB
:102ED000012A22D000EB4512D2F8003943F0044316
:102EE000C2F800394A6932B3D0F83428097801F0C1
:102EF0000F03012199400A43C0F8342826E02640F8
:102F0000C3F81069D3F8104944F40024C3F81049F9
:102F1000D3F810496FF31204D8E7096919B100EB2F
:102F20004512C2F8141900EB4510D0F8001941F011
:102F30000441C0F8001909E0C86808B1C3F8140BCF
:102F4000D3F8000B40F00440C3F8000B002070BD24
:102F5000FFFF07E010B5036C134CA34203D9D0F870
:102F6000003B002B1EDB0023C0F8103BD0F8103BC9
:102F700043F40023C0F8103BD0F8103B43F0180393
:102F8000C0F8103BD0F8103B43F0C043C0F8103BF2
:102F9000012907D1C0F8142BD0F8001B41F0802183
:102FA000C0F8001B002010BD0A30544F4A780B783F
:102FB000012A00EB43100BD0D0F8002B22F40012B2
:102FC000C0F8002BC978032914D0022912D017E0C9
:102FD000D0F8002922F40012C0F80029C97803298A
:102FE00001D002290CD1D0F8001941F08051C0F86D
:102FF000001905E0D0F8001B41F08051C0F8001B1B
:10300000002070470A784B78D1B200EB4110012BB9
:1030100012D0D0F8001B002906DB2AB1D0F8001B23
:1030200021F08041C0F8001BD0F8001B41F40011D2
:10303000C0F8001B00207047D0F80019002906DBFB
:103040002AB1D0F8001921F08041C0F80019D0F859
:10305000001941F40011C0F80019EBE7F8B50C783D
:103060004F78774DE3B26FF0604600EB4313012FCA
:1030700026D0D3F8104B6FF31204C3F8104BD3F8DB
:10308000104B2C40C3F8104B4C69002C74D08D6849
:103090002C44641EB4FBF5F4D3F8105BA4B206EA2A
:1030A000C4463543C3F8105BD3F8105B8E686643A3
:1030B000C6F312042543C3F8105B012A71D0A6E0C1
:1030C0004F691FB3D3F810796FF31207C3F8107963
:1030D000D3F810792F40C3F810794F698D682F44C9
:1030E0007F1EB7FBF5F506EAC545D3F810693543F1
:1030F000C3F81059D3F810594E69C6F31206354378
:10310000C3F81059CD78012D10D01BE0D3F8106909
:103110002E40C3F81069D3F8105945F40025C3F8C0
:103120001059D3F810596FF3120509E0D3F810596C
:1031300025F0C045C3F81059D3F8105945F0005593
:10314000C3F81059012A18D000EB4413D3F80049F2
:1031500044F00444C3F80049CC78012C2FD04A69CC
:1031600062B3D0F83428097801F00F0301219940A7
:103170000A43C0F8342860E036E00A691AB100EB6F
:103180004413C3F81429C97801290FD1D0F80818BD
:10319000C90500EB4411D1F8002903D442F00052D4
:1031A00002E030E042F08052C1F8002900EB441008
:1031B000D0F8001941F00441C0F800193DE0D0F802
:1031C0000848E405D3F8004902D444F0005401E073
:1031D00044F08054C3F8004900928A8A93B20A7876
:1031E000C96800F03FF928E0D3F8104B8D68C5F3AB
:1031F00012052C43C3F8104BD3F8104B44F40024B1
:10320000C3F8104B59E7CA680AB1C3F8142BC97840
:1032100001290CD1D0F80808C005D3F8000B02D45E
:1032200040F0005001E040F08050C3F8000BD3F8AC
:10323000000B40F00440C3F8000B0020F8BD000074
:10324000FFFF07E0816841F00101816000207047C5
:10325000002110220261054A491C914201D9032034
:1032600070470369DB06F7D400207047400D030068
:103270000022202343EA811101610549521C8A4240
:1032800001D90320704703699B06F7D400207047DB
:10329000400D0300D0F8080810F0060004D0022802
:1032A00003D0062801D00F207047022070474069E4
:1032B00000F001007047D0F81818D0F81C0808403A
:1032C00080B27047D0F81818D0F81C080840000CDD
:1032D000704710B5D0F81038D0F8342801F00F043A
:1032E00000EB4110E24002F00102D0F8080943EA85
:1032F000C212104010BD00EB4111D1F8081BD0F8EC
:103300001408084070474169806908407047D21C22
:1033100010B59308002200F5805002E00468521CAA
:1033200010C19A42FAD3084610BD10B5C26822F007
:10333000C042C260012902D029B1012010BDC1687C
:1033400041F0005102E0C16841F08041C16032208B
:10335000FDF758F8002010BDD0F8002822F4FE62D6
:10336000C0F80028D0F800284FF4FE6303EA0111EA
:103370000A43C0F80028002070470000022A3ED10E
:10338000264A274B0A449A4201D20F2138E0254AA7
:10339000254B0A449A4201D20E2131E0234A244BA4
:1033A0000A449A4201D20D212AE0224A224B0A44C1
:1033B0009A4201D20C2123E0204A214B0A449A422E
:1033C00001D20B211CE01F4A1F4B0A449A4201D232
:1033D0000A2115E01D4A1E4B0A449A420FD31D4A8A
:1033E0001D4B0A449A4201D2082109E01B4A1144AC
:1033F0001B4A914201D2072102E0062100E0092187
:10340000C26822F47052C260C2684FF4705303EA7B
:1034100081210A43C260002070470000405327FF0B
:1034200000350C00401E1BFF40420F0000DC0BFF6C
:10343000804F1200808CF9FE20D6130060B6E5FEA6
:1034400060E3160000D3CEFE40771B00C05BB3FEE6
:10345000C091210000CA91FE20753800E05459FE49
:10346000E09C410010B5029C64B9DB1C9C0800EB99
:103470000230002300F5805002E004C902605B1CAA
:10348000A342FAD3002010BDFEE70907090E002869
:1034900004DB00F1E02080F80014704700F00F001A
:1034A00000F1E02080F8141D704702E008C8121FE8
:1034B00008C1002AFAD170477047002001E001C11D
:1034C000121F002AFBD170478EB0FDF7B7F8FEF748
:1034D0009BFBFEF70BFAFEF73FFA1C220B496846EE
:1034E000FCF7FFFE0021684600F027F8084C07496A
:1034F0001C2220601C3107A8FCF7F3FE002107A85E
:1035000000F01BF8606000F013F8FEE78840000848
:10351000000000200021842800D0C11C084670470C
:1035200010B5002800D1012000F052FB002010BD92
:1035300010B500F075FB002010BD30B585B0044615
:103540000D466169B4F90800002910D0A16971B174
:10355000FFF7E0FF6269A1690192029100902B469A
:1035600022692168606800F08FFC049010E0FFF78A
:10357000D1FF04A901910090208A2B4682B22168D4
:10358000606800F04BFC012802D005B0002030BD7F
:10359000049805B030BD00002DE9F04104460F4607
:1035A000194EF5683068001D00F044FA48B93068DB
:1035B000012190F82C0001FA00F0316921EA0000A5
:1035C0003061B4F1FF3F07D137B13068BDE8F04159
:1035D000011D0E4800F075BA2C4430684460AC42BE
:1035E00006D23068011DB06BBDE8F04100F04EBA64
:1035F0003068011D706B00F049FAB06A844200D255
:10360000B462BDE8F0810000B4010020C40E0020C7
:1036100070B5044600F062FA1C4DA868401CA86012
:10362000286810B1686938B10CE02C60A8680128DE
:1036300008D100F0EDF805E02868E16AC06A884228
:1036400000D82C60686A401C6862E06A01212A691F
:103650008140114329610E4900EB800001EB80009D
:10366000211D00F02EFA00F059FA686900280CD0EC
:103670002868E16AC06A884207D206494FF0805044
:103680000860BFF34F8FBFF36F8F70BDB401002090
:10369000E80D002004ED00E070B50D4C60680028D6
:1036A00015D00C4E00F01AFAF068C568281D00F01D
:1036B000C1F9A068401EA0606068401E606000F014
:1036C0002DFA284600F008F860680028EAD170BD9D
:1036D000B4010020B00E002010B5044694F851103B
:1036E00000290BD0012911D0022914D0502080F3D9
:1036F0001188BFF34F8FBFF36F8FFEE7206B00F091
:1037000023FA2046BDE8104000F01EBA2046BDE86E
:10371000104000F019BA10BD4FF47051104810F06D
:10372000070F06D0C01D20F007000D49411AC1F552
:1037300070510C4A1060002353600144083921F095
:103740000701183A11604B600B600B1A436001606F
:103750004068906050604FF000405061704700003A
:10376000D80E002008020020074E4FF08054074D6D
:10377000FFF792FF30680128FAD92C60BFF34F8F12
:10378000BFF36F8FF4E70000E80D002004ED00E0C8
:103790002DE9F0478146099E089D0A9C9A46521ED3
:1037A000206B00EB820020F00708002700290CD0D6
:1037B000002023180A5C83F834200A5C12B1401CF4
:1037C0001028F6D384F8437001E084F83470072D94
:1037D00000D30625E5626564A764201D00F053F957
:1037E00004F1180000F04FF92461C5F10700A06151
:1037F0006462E76484F8507052464946404600F0DF
:1038000003F92060002E00D03460BDE8F08700008E
:1038100070B500240F4D04EB840005EB800000F030
:1038200027F9641C072CF6D30B4800F021F90B484C
:1038300000F01EF90A4800F01BF90A4800F018F9D8
:10384000094800F015F909480349416314318163BF
:1038500070BD0000E80D0020740E0020880E0020CE
:103860009C0E0020B00E0020C40E0020B4010020E9
:1038700010B4144900E011460A688242FBD34B6839
:1038800003EB010C844503D14068184448600846A6
:103890000C68D0F804C00CEB0003A3420CD10A4B17
:1038A0001B689A4206D05268624442600A681268F5
:1038B000026002E0036000E00260814200D0086024
:1038C00010BC704708020020F00100200749486B37
:1038D0000068002805D0486BC068C06840688862EE
:1038E00070474FF0FF30886270470000B40100203D
:1038F0000A484068B0F1FF3F07D0502080F311889C
:10390000BFF34F8FBFF36F8FFEE7502080F3118816
:10391000BFF34F8FBFF36F8FFEE700001002002050
:103920002DE9F0410546002600F0BEF9344F386815
:1039300008B9FFF7F1FE7869054251D19DB108350C
:1039400015F0070F0FD005F00700C0F1080005447F
:1039500015F0070F07D0502080F31188BFF34F8F69
:10396000BFF36F8FFEE7002D3AD07868854237D8D5
:1039700024490846046801E0214604466068A842DC
:1039800002D220680028F7D13868844228D008681D
:1039900000F10806206808606068411B10290FD9F3
:1039A000601910F0070F07D0502080F31188BFF383
:1039B0004F8FBFF36F8FFEE741606560FFF758FFE1
:1039C00061687868401A7860BA68904200D2B8603E
:1039D00078690843606000202060F868401CF86047
:1039E00000F0ECFA16F0070F07D0502080F3118892
:1039F000BFF34F8FBFF36F8FFEE73046BDE8F08116
:103A0000F001002008020020001F4FF080730360C7
:103A1000001F21F001010160001F054901601438F9
:103A20000260001F6FF00201016020387047000043
:103A3000F13800080169436882689A6083684268C7
:103A40005A604A68824201D182684A60002202615B
:103A50000868401E0860086870470000034B036058
:103A600003F1540008608020106070471C020020A1
:103A700000F1080141604FF0FF328260C1600161D6
:103A800000210160704700210161704710B4D1F836
:103A900000C0BCF1FF3F02D000F1080202E0026961
:103AA00004E01A4653681C686445FAD953684B60B1
:103AB00099608A60516008610168491C016010BC0E
:103AC000704742684A6093688B6093685960916060
:103AD00008610168491C016070470000502080F3B4
:103AE0001188BFF34F8FBFF36F8F0A494868401C9E
:103AF000486001280CD10848006810F0FF0F07D07B
:103B0000502080F31188BFF34F8FBFF36F8FFEE714
:103B1000704700001002002004ED00E009494868E9
:103B2000002806D0401E4860002801D180F311888B
:103B30007047502080F31188BFF34F8FBFF36F8F12
:103B4000FEE700001002002070B500282AD0A0F186
:103B50000804154D60686969084207D1502080F358
:103B60001188BFF34F8FBFF36F8FFEE722683AB122
:103B7000502080F31188BFF34F8FBFF36F8FFEE7A4
:103B80008843606000F090F8606869680844686085
:103B90002046FFF76DFE2869401C2861BDE8704093
:103BA00000F00CBA70BD0000F00100204FF0E020E2
:103BB00000210161816105494FF47A720968B1FB06
:103BC000F2F1491E4161072101617047D8000020D0
:103BD00010B502460020002A12D00F48006B38B101
:103BE000502080F31188BFF34F8FBFF36F8FFEE734
:103BF00000F05AF800211046FFF7CEFC00F0DEF985
:103C0000002807D105494FF080500860BFF34F8F5F
:103C1000BFF36F8F10BD0000B401002004ED00E081
:103C200010B586B000240594049403AA04A905A83D
:103C3000FFF714FF05980499019102900023009466
:103C400015A11748039A00F01FF91649C86208B178
:103C5000012000E0002001280AD0B0F1FF3F19D177
:103C6000502080F31188BFF34F8FBFF36F8FFEE7B3
:103C7000502080F31188BFF34F8FBFF36F8F4FF049
:103C8000FF30886201204861CC6006B0BDE810407A
:103C900000F042B806B010BD49444C450000000099
:103CA00069370008B40100200248016B491C016318
:103CB00070470000B4010020154A106B002802D0A4
:103CC0000120D06170470020D0611069B0FA80F007
:103CD000C0F11F000F4900EB800051F8203073B194
:103CE00001EB800041684968416000F10803994296
:103CF00001D1496841604068C06810607047502039
:103D000080F31188BFF34F8FBFF36F8FFEE7000082
:103D1000B4010020E80D002010B582B038480168D9
:103D2000384A914207D1502080F31188BFF34F8F5A
:103D3000BFF36F8FFEE700683349884207D15020F8
:103D400080F31188BFF34F8FBFF36F8FFEE72F49CA
:103D500008780190FF200870087800909DF8000016
:103D60009DF8002000F0F000904207D0502080F332
:103D70001188BFF34F8FBFF36F8FFEE79DF80000F0
:103D8000234C00F0500020700720A0609DF8000038
:103D900010F0800F0BD0A068401EA0609DF80000BE
:103DA000400000909DF8000010F0800FF3D1A06853
:103DB000032807D0502080F31188BFF34F8FBFF343
:103DC0006F8FFEE74FF44070A060019808701148B3
:103DD000016841F470010160016841F070410160C7
:103DE000FFF7E4FE00206060FCF7FCF90A48016878
:103DF00041F040410160FCF7E1F902B0002010BD44
:103E000000ED00E071C20F4170C20F4100E400E01C
:103E10001002002020ED00E034EF00E02DE9F04F2B
:103E200085B081460F9F0E9E8A4690469B464FEA7C
:103E30008800FFF775FD054628000AD05420FFF7DB
:103E40006FFD04460CB1256304E02846FFF77CFEB5
:103E500000E000249CB1002084F8510003905B46F0
:103E6000424651460197009602944846FFF790FC5F
:103E70002046FFF7CDFB05B00120BDE8F08F05B06F
:103E80004FF0FF30BDE8F08F70B586B00646DDF824
:103E900028C00C9C0B98002816D0ECB15425049532
:103EA0002063022084F85100002005AD0390CDF876
:103EB00000C0019502943046FFF76AFC2046FFF7E8
:103EC000A7FB059806B070BD502080F31188BFF3A2
:103ED0004F8FBFF36F8FFEE7502080F31188BFF341
:103EE0004F8FBFF36F8FFEE72DE9F0470026314F6C
:103EF000386B002805D0B869401CB8613046BDE871
:103F0000F087F868451CFD609DB9786B006838B192
:103F1000502080F31188BFF34F8FBFF36F8FFEE700
:103F2000786BB96B7963B863386A401C3862FFF705
:103F3000CDFCB86ADFF8808085420FD34FF00109CD
:103F4000786B006838B1786BC068C4686068854277
:103F500012D2B86202E04FF0FF30B8623868C06A2F
:103F600000EB800058F82000012800D90126F869EC
:103F70000028C3D00126C1E7201DFFF75BFDA06A22
:103F800018B104F11800FFF755FDE16A3A6909FA22
:103F900001F01043386101EB810008EB8000211D26
:103FA000FFF78FFDE06A3968C96A8842C8D30126E5
:103FB000C6E70000B4010020E80D00202DE9F0471D
:103FC0000024A0462D4D286B002807D0FFF786FD62
:103FD000286B401E2863286B40B149E0502080F3D5
:103FE0001188BFF34F8FBFF36F8FFEE7A8680028DB
:103FF0003ED0234F3868012600B3A7F1B409F86812
:10400000C46804F11800FFF715FD201DFFF712FD2D
:10401000E06A2A6906FA00F11143296100EB800089
:1040200009EB8000211DFFF74CFDE06A2968C96A91
:10403000884200D3EE6138680028E0D10CB1FFF768
:1040400045FCAC6944B1FFF74FFF00B1EE61641E5F
:10405000002CF8D10020A861E86948B14FF00108B0
:1040600008494FF080500860BFF34F8FBFF36F8F48
:10407000FFF754FD4046BDE8F0870000B401002082
:104080009C0E002004ED00E0D8400008391B000819
:10409000FFFF0000000000008000000000000000A2
:1040A00000000000E4400008611B00080000000060
:1040B0000000000080000000000000000000000080
:1040C00000000000000000000102030406070809C8
:1040D00000000000010203045461736B4C656431FD
:1040E000000000005461736B4C65643200000000F6
:1040F00010410008000000201C0200008C03000892
:10410000144200081C020020BC500000BA34000811
:104110008110430102030405060708090A0B0C0D70
:104120000E0F101112131415161718191A1B1C1D37
:104130001E1F202122232425262728292A2B2C2D27
:104140002E2F303132333435363738393A3B3C3D17
:104150003E3F40CD20140805211B0811041A3904E4
:104160001A6D041AA5141AD90417040309041201BC
:1041700032021640830450571A026E2201031A1AA3
:104180000312061009FF0901A1010901151326FFF9
:10419000780995407508810209020D249102C02218
:1041A000981420E9031B08E5041AED041953118241
:1041B000105324F413491E1408B11D1408091F429A
:1041C000081AEF0C1A85041A9304C11A31281A250B
:1041D000041A3D041A19041409022913010125C007
:1041E0003209042A02A915092111011401222216FB
:1041F00007058103402D0507050107291A09562CDB
:10420000691A31130A0632022A40E401601AAA012F
:044210004100000069
:040000050800018965
:00000001FF
